S023000052414D436F646556325F4C504331314178785F454550524F4D5F4C452E6D6F7493
S11300001100C500B701F701510253025502000067
S1130010506895490968954A891A39D0AE22520325
S1130020891A49D084221203891A31D0B022D2020B
S1130030891A45D084221203891A3FD0891A3BD0E9
S1130040D4221203891A3BD08022D201891A37D0D4
S113005084221203891A31D0AF22D203891A2FD0F5
S1130060834A891A14D0834A891A29D0824A891A60
S11300700ED0AE225203891A1ED0891A1ED0891AB4
S11300801ED07E4A891A19D0CE229203891A17D01B
S1130090082100220280062383700123C3700371A8
S11300A043718271C271027242728372036142614E
S11300B04022C261816170471021EAE72021E8E70C
S11300C03F21E6E7F3B581B05768546915696C4E72
S11300D08020C004B060A80722D0002C64D06948F6
S11300E04560082101600EE0019800F0B3F8306823
S11300F04001F9D58020C004B0606248C0683870FF
S11301007F1C6D1C641EA80701D0002CECD1019843
S113011000F0A0F830684001F9D58020C004B06038
S1130120042C23D3574845600A210160019800F04C
S113013091F830684001F9D58020C004B06051487E
S1130140C0683870010A7970010CB970000EF8703B
S11301503F1D241F2D1D042CE8D2019800F07AF8CD
S113016030684001F9D58020C004B060002C1BD059
S11301704448456008210160019800F06BF830683C
S11301804001F9D58020C004B0603E48C068387092
S11301907F1C641EF0D1019800F05CF830684001C7
S11301A0F9D58020C004B060029800210160029853
S11301B0446003B0F0BDF1B582B057681069009097
S11301C0002008602E4C8021C904A1602D4D686078
S11301D005202860102638683F1DA860029800F0AA
S11301E039F820684001F9D58020C004A060761E4B
S11301F0F1D186001EE0F1B582B0106900900020B4
S113020008601F4C8027FF04A7601E4D686005200E
S113021028601026029800F01DF80020C043A86052
S1130220029800F017F820683840F9D0A760761ECD
S1130230F0D1BE00A660009868600620286002988D
S113024000F008F820683040F9D0A66003B0F0BD93
S1130250704770470C480168C90703D5AA2181601B
S11302605521816070470000F48304402BC03E0593
S113027000C0DC070040E32700C0BE0F0080AC07CD
S10F0280E0CF034080C003400040004079
S9030000FC
